{
  "contractName": "Allevamento",
  "abi": [
    {
      "inputs": [
        {
          "internalType": "uint256",
          "name": "",
          "type": "uint256"
        }
      ],
      "name": "schede",
      "outputs": [
        {
          "internalType": "uint256",
          "name": "progressivo",
          "type": "uint256"
        },
        {
          "components": [
            {
              "internalType": "address",
              "name": "id_allevatore",
              "type": "address"
            },
            {
              "internalType": "uint256",
              "name": "lt_munti",
              "type": "uint256"
            },
            {
              "internalType": "uint256",
              "name": "id_lotto_munto",
              "type": "uint256"
            },
            {
              "internalType": "string",
              "name": "luogo_mungitura",
              "type": "string"
            },
            {
              "internalType": "string",
              "name": "data_mungitura",
              "type": "string"
            }
          ],
          "internalType": "struct Allevatore",
          "name": "datiAllevatore",
          "type": "tuple"
        },
        {
          "components": [
            {
              "internalType": "address",
              "name": "idAnalista",
              "type": "address"
            },
            {
              "internalType": "bool",
              "name": "flagMalattie",
              "type": "bool"
            },
            {
              "internalType": "uint256",
              "name": "phLatte",
              "type": "uint256"
            },
            {
              "internalType": "bool",
              "name": "esitoTests",
              "type": "bool"
            }
          ],
          "internalType": "struct Analista",
          "name": "analista",
          "type": "tuple"
        },
        {
          "internalType": "bool",
          "name": "flagImbot",
          "type": "bool"
        },
        {
          "components": [
            {
              "internalType": "uint256",
              "name": "lottoBotForm",
              "type": "uint256"
            },
            {
              "internalType": "string",
              "name": "dataScadenza",
              "type": "string"
            },
            {
              "internalType": "string",
              "name": "nomeForm",
              "type": "string"
            },
            {
              "internalType": "uint256",
              "name": "numForma",
              "type": "uint256"
            },
            {
              "internalType": "string",
              "name": "dataCaseificazione",
              "type": "string"
            },
            {
              "internalType": "string",
              "name": "luogoCaseificazione",
              "type": "string"
            },
            {
              "internalType": "uint256",
              "name": "mesiStagionatura",
              "type": "uint256"
            }
          ],
          "internalType": "struct formaggio",
          "name": "forma",
          "type": "tuple"
        },
        {
          "components": [
            {
              "internalType": "uint256",
              "name": "squadraImbot",
              "type": "uint256"
            },
            {
              "internalType": "string",
              "name": "tipoLatte",
              "type": "string"
            },
            {
              "internalType": "uint256",
              "name": "lottoBotForm",
              "type": "uint256"
            },
            {
              "internalType": "string",
              "name": "dataScadenza",
              "type": "string"
            }
          ],
          "internalType": "struct bottiglia",
          "name": "bot",
          "type": "tuple"
        }
      ],
      "stateMutability": "view",
      "type": "function",
      "constant": true
    },
    {
      "inputs": [
        {
          "components": [
            {
              "internalType": "address",
              "name": "id_allevatore",
              "type": "address"
            },
            {
              "internalType": "uint256",
              "name": "lt_munti",
              "type": "uint256"
            },
            {
              "internalType": "uint256",
              "name": "id_lotto_munto",
              "type": "uint256"
            },
            {
              "internalType": "string",
              "name": "luogo_mungitura",
              "type": "string"
            },
            {
              "internalType": "string",
              "name": "data_mungitura",
              "type": "string"
            }
          ],
          "internalType": "struct Allevatore",
          "name": "_datiAllevatore",
          "type": "tuple"
        }
      ],
      "name": "aggiornaScheda",
      "outputs": [],
      "stateMutability": "nonpayable",
      "type": "function"
    },
    {
      "inputs": [
        {
          "internalType": "uint256",
          "name": "_progressivo",
          "type": "uint256"
        },
        {
          "components": [
            {
              "internalType": "address",
              "name": "idAnalista",
              "type": "address"
            },
            {
              "internalType": "bool",
              "name": "flagMalattie",
              "type": "bool"
            },
            {
              "internalType": "uint256",
              "name": "phLatte",
              "type": "uint256"
            },
            {
              "internalType": "bool",
              "name": "esitoTests",
              "type": "bool"
            }
          ],
          "internalType": "struct Analista",
          "name": "_analista",
          "type": "tuple"
        }
      ],
      "name": "aggiornaSchedaAnalisi",
      "outputs": [],
      "stateMutability": "nonpayable",
      "type": "function"
    },
    {
      "inputs": [
        {
          "internalType": "uint256",
          "name": "_progressivo",
          "type": "uint256"
        },
        {
          "components": [
            {
              "internalType": "uint256",
              "name": "squadraImbot",
              "type": "uint256"
            },
            {
              "internalType": "string",
              "name": "tipoLatte",
              "type": "string"
            },
            {
              "internalType": "uint256",
              "name": "lottoBotForm",
              "type": "uint256"
            },
            {
              "internalType": "string",
              "name": "dataScadenza",
              "type": "string"
            }
          ],
          "internalType": "struct bottiglia",
          "name": "_bot",
          "type": "tuple"
        }
      ],
      "name": "aggiornaImbot",
      "outputs": [],
      "stateMutability": "nonpayable",
      "type": "function"
    },
    {
      "inputs": [
        {
          "internalType": "uint256",
          "name": "_progressivo",
          "type": "uint256"
        },
        {
          "components": [
            {
              "internalType": "uint256",
              "name": "lottoBotForm",
              "type": "uint256"
            },
            {
              "internalType": "string",
              "name": "dataScadenza",
              "type": "string"
            },
            {
              "internalType": "string",
              "name": "nomeForm",
              "type": "string"
            },
            {
              "internalType": "uint256",
              "name": "numForma",
              "type": "uint256"
            },
            {
              "internalType": "string",
              "name": "dataCaseificazione",
              "type": "string"
            },
            {
              "internalType": "string",
              "name": "luogoCaseificazione",
              "type": "string"
            },
            {
              "internalType": "uint256",
              "name": "mesiStagionatura",
              "type": "uint256"
            }
          ],
          "internalType": "struct formaggio",
          "name": "_forma",
          "type": "tuple"
        }
      ],
      "name": "aggiornaCaseificazione",
      "outputs": [],
      "stateMutability": "nonpayable",
      "type": "function"
    },
    {
      "inputs": [],
      "name": "get_schede",
      "outputs": [
        {
          "components": [
            {
              "internalType": "uint256",
              "name": "progressivo",
              "type": "uint256"
            },
            {
              "components": [
                {
                  "internalType": "address",
                  "name": "id_allevatore",
                  "type": "address"
                },
                {
                  "internalType": "uint256",
                  "name": "lt_munti",
                  "type": "uint256"
                },
                {
                  "internalType": "uint256",
                  "name": "id_lotto_munto",
                  "type": "uint256"
                },
                {
                  "internalType": "string",
                  "name": "luogo_mungitura",
                  "type": "string"
                },
                {
                  "internalType": "string",
                  "name": "data_mungitura",
                  "type": "string"
                }
              ],
              "internalType": "struct Allevatore",
              "name": "datiAllevatore",
              "type": "tuple"
            },
            {
              "components": [
                {
                  "internalType": "address",
                  "name": "idAnalista",
                  "type": "address"
                },
                {
                  "internalType": "bool",
                  "name": "flagMalattie",
                  "type": "bool"
                },
                {
                  "internalType": "uint256",
                  "name": "phLatte",
                  "type": "uint256"
                },
                {
                  "internalType": "bool",
                  "name": "esitoTests",
                  "type": "bool"
                }
              ],
              "internalType": "struct Analista",
              "name": "analista",
              "type": "tuple"
            },
            {
              "internalType": "bool",
              "name": "flagImbot",
              "type": "bool"
            },
            {
              "components": [
                {
                  "internalType": "uint256",
                  "name": "lottoBotForm",
                  "type": "uint256"
                },
                {
                  "internalType": "string",
                  "name": "dataScadenza",
                  "type": "string"
                },
                {
                  "internalType": "string",
                  "name": "nomeForm",
                  "type": "string"
                },
                {
                  "internalType": "uint256",
                  "name": "numForma",
                  "type": "uint256"
                },
                {
                  "internalType": "string",
                  "name": "dataCaseificazione",
                  "type": "string"
                },
                {
                  "internalType": "string",
                  "name": "luogoCaseificazione",
                  "type": "string"
                },
                {
                  "internalType": "uint256",
                  "name": "mesiStagionatura",
                  "type": "uint256"
                }
              ],
              "internalType": "struct formaggio",
              "name": "forma",
              "type": "tuple"
            },
            {
              "components": [
                {
                  "internalType": "uint256",
                  "name": "squadraImbot",
                  "type": "uint256"
                },
                {
                  "internalType": "string",
                  "name": "tipoLatte",
                  "type": "string"
                },
                {
                  "internalType": "uint256",
                  "name": "lottoBotForm",
                  "type": "uint256"
                },
                {
                  "internalType": "string",
                  "name": "dataScadenza",
                  "type": "string"
                }
              ],
              "internalType": "struct bottiglia",
              "name": "bot",
              "type": "tuple"
            }
          ],
          "internalType": "struct schedaLatte[]",
          "name": "",
          "type": "tuple[]"
        }
      ],
      "stateMutability": "view",
      "type": "function",
      "constant": true
    },
    {
      "inputs": [
        {
          "internalType": "uint256",
          "name": "_id_lotto_munto",
          "type": "uint256"
        }
      ],
      "name": "get_schede_filtro_munto",
      "outputs": [
        {
          "components": [
            {
              "internalType": "uint256",
              "name": "progressivo",
              "type": "uint256"
            },
            {
              "components": [
                {
                  "internalType": "address",
                  "name": "id_allevatore",
                  "type": "address"
                },
                {
                  "internalType": "uint256",
                  "name": "lt_munti",
                  "type": "uint256"
                },
                {
                  "internalType": "uint256",
                  "name": "id_lotto_munto",
                  "type": "uint256"
                },
                {
                  "internalType": "string",
                  "name": "luogo_mungitura",
                  "type": "string"
                },
                {
                  "internalType": "string",
                  "name": "data_mungitura",
                  "type": "string"
                }
              ],
              "internalType": "struct Allevatore",
              "name": "datiAllevatore",
              "type": "tuple"
            },
            {
              "components": [
                {
                  "internalType": "address",
                  "name": "idAnalista",
                  "type": "address"
                },
                {
                  "internalType": "bool",
                  "name": "flagMalattie",
                  "type": "bool"
                },
                {
                  "internalType": "uint256",
                  "name": "phLatte",
                  "type": "uint256"
                },
                {
                  "internalType": "bool",
                  "name": "esitoTests",
                  "type": "bool"
                }
              ],
              "internalType": "struct Analista",
              "name": "analista",
              "type": "tuple"
            },
            {
              "internalType": "bool",
              "name": "flagImbot",
              "type": "bool"
            },
            {
              "components": [
                {
                  "internalType": "uint256",
                  "name": "lottoBotForm",
                  "type": "uint256"
                },
                {
                  "internalType": "string",
                  "name": "dataScadenza",
                  "type": "string"
                },
                {
                  "internalType": "string",
                  "name": "nomeForm",
                  "type": "string"
                },
                {
                  "internalType": "uint256",
                  "name": "numForma",
                  "type": "uint256"
                },
                {
                  "internalType": "string",
                  "name": "dataCaseificazione",
                  "type": "string"
                },
                {
                  "internalType": "string",
                  "name": "luogoCaseificazione",
                  "type": "string"
                },
                {
                  "internalType": "uint256",
                  "name": "mesiStagionatura",
                  "type": "uint256"
                }
              ],
              "internalType": "struct formaggio",
              "name": "forma",
              "type": "tuple"
            },
            {
              "components": [
                {
                  "internalType": "uint256",
                  "name": "squadraImbot",
                  "type": "uint256"
                },
                {
                  "internalType": "string",
                  "name": "tipoLatte",
                  "type": "string"
                },
                {
                  "internalType": "uint256",
                  "name": "lottoBotForm",
                  "type": "uint256"
                },
                {
                  "internalType": "string",
                  "name": "dataScadenza",
                  "type": "string"
                }
              ],
              "internalType": "struct bottiglia",
              "name": "bot",
              "type": "tuple"
            }
          ],
          "internalType": "struct schedaLatte[]",
          "name": "",
          "type": "tuple[]"
        }
      ],
      "stateMutability": "view",
      "type": "function",
      "constant": true
    },
    {
      "inputs": [],
      "name": "getAllevatori",
      "outputs": [
        {
          "components": [
            {
              "internalType": "address",
              "name": "id_allevatore",
              "type": "address"
            },
            {
              "internalType": "uint256",
              "name": "lt_munti",
              "type": "uint256"
            },
            {
              "internalType": "uint256",
              "name": "id_lotto_munto",
              "type": "uint256"
            },
            {
              "internalType": "string",
              "name": "luogo_mungitura",
              "type": "string"
            },
            {
              "internalType": "string",
              "name": "data_mungitura",
              "type": "string"
            }
          ],
          "internalType": "struct Allevatore[]",
          "name": "",
          "type": "tuple[]"
        }
      ],
      "stateMutability": "view",
      "type": "function",
      "constant": true
    }
  ],
  "bytecode": "0x608060405234801561001057600080fd5b506128c0806100206000396000f3fe608060405234801561001057600080fd5b50600436106100785760003560e01c80634362825c1461007d5780634f2a85441461009257806357cde396146100b05780639767aff7146100d0578063b3727d04146100f5578063d03dc2b714610108578063dba1c50b14610110578063e196417f14610123575b600080fd5b61009061008b3660046122bd565b610136565b005b61009a61029d565b6040516100a79190612622565b60405180910390f35b6100c36100be366004612212565b6104fd565b6040516100a79190612682565b6100e36100de366004612212565b610cc5565b6040516100a79695949392919061274b565b61009061010336600461237e565b61127f565b6100c36114bb565b61009061011e36600461222a565b611aac565b61009061013136600461214c565b611bec565b60016000838154811061015957634e487b7160e01b600052603260045260246000fd5b906000526020600020906015020160090160006101000a81548160ff0219169083151502179055508060000151600083815481106101a757634e487b7160e01b600052603260045260246000fd5b9060005260206000209060150201601101600001819055508060200151600083815481106101e557634e487b7160e01b600052603260045260246000fd5b9060005260206000209060150201601101600101908051906020019061020c929190611f11565b5080604001516000838154811061023357634e487b7160e01b600052603260045260246000fd5b90600052602060002090601502016011016002018190555080606001516000838154811061027157634e487b7160e01b600052603260045260246000fd5b90600052602060002090601502016011016003019080519060200190610298929190611f11565b505050565b6000805460609180826001600160401b038111156102cb57634e487b7160e01b600052604160045260246000fd5b60405190808252806020026020018201604052801561030457816020015b6102f1611f95565b8152602001906001900390816102e95790505b509050600091505b828210156104f6576000828154811061033557634e487b7160e01b600052603260045260246000fd5b90600052602060002090601502016001016040518060a00160405290816000820160009054906101000a90046001600160a01b03166001600160a01b03166001600160a01b0316815260200160018201548152602001600282015481526020016003820180546103a490612808565b80601f01602080910402602001604051908101604052809291908181526020018280546103d090612808565b801561041d5780601f106103f25761010080835404028352916020019161041d565b820191906000526020600020905b81548152906001019060200180831161040057829003601f168201915b5050505050815260200160048201805461043690612808565b80601f016020809104026020016040519081016040528092919081815260200182805461046290612808565b80156104af5780601f10610484576101008083540402835291602001916104af565b820191906000526020600020905b81548152906001019060200180831161049257829003601f168201915b5050505050815250508183815181106104d857634e487b7160e01b600052603260045260246000fd5b602002602001018190525081806104ee90612843565b92505061030c565b9250505090565b60008054606091816001600160401b0381111561052a57634e487b7160e01b600052604160045260246000fd5b60405190808252806020026020018201604052801561056357816020015b610550611fcd565b8152602001906001900390816105485790505b5090506000805b83821015610be257856000838154811061059457634e487b7160e01b600052603260045260246000fd5b9060005260206000209060150201600101600201541415610bd057600082815481106105d057634e487b7160e01b600052603260045260246000fd5b90600052602060002090601502016040518060c001604052908160008201548152602001600182016040518060a00160405290816000820160009054906101000a90046001600160a01b03166001600160a01b03166001600160a01b03168152602001600182015481526020016002820154815260200160038201805461065690612808565b80601f016020809104026020016040519081016040528092919081815260200182805461068290612808565b80156106cf5780601f106106a4576101008083540402835291602001916106cf565b820191906000526020600020905b8154815290600101906020018083116106b257829003601f168201915b505050505081526020016004820180546106e890612808565b80601f016020809104026020016040519081016040528092919081815260200182805461071490612808565b80156107615780601f1061073657610100808354040283529160200191610761565b820191906000526020600020905b81548152906001019060200180831161074457829003601f168201915b5050509190925250505081526040805160808101825260068401546001600160a01b038116825260ff600160a01b90910481161515602083810191909152600786015483850152600886015482161515606080850191909152818601939093526009860154909116151583850152825160e08101909352600a850180548452600b8601805493909501949092918401916107fa90612808565b80601f016020809104026020016040519081016040528092919081815260200182805461082690612808565b80156108735780601f1061084857610100808354040283529160200191610873565b820191906000526020600020905b81548152906001019060200180831161085657829003601f168201915b5050505050815260200160028201805461088c90612808565b80601f01602080910402602001604051908101604052809291908181526020018280546108b890612808565b80156109055780601f106108da57610100808354040283529160200191610905565b820191906000526020600020905b8154815290600101906020018083116108e857829003601f168201915b505050505081526020016003820154815260200160048201805461092890612808565b80601f016020809104026020016040519081016040528092919081815260200182805461095490612808565b80156109a15780601f10610976576101008083540402835291602001916109a1565b820191906000526020600020905b81548152906001019060200180831161098457829003601f168201915b505050505081526020016005820180546109ba90612808565b80601f01602080910402602001604051908101604052809291908181526020018280546109e690612808565b8015610a335780601f10610a0857610100808354040283529160200191610a33565b820191906000526020600020905b815481529060010190602001808311610a1657829003601f168201915b5050505050815260200160068201548152505081526020016011820160405180608001604052908160008201548152602001600182018054610a7490612808565b80601f0160208091040260200160405190810160405280929190818152602001828054610aa090612808565b8015610aed5780601f10610ac257610100808354040283529160200191610aed565b820191906000526020600020905b815481529060010190602001808311610ad057829003601f168201915b5050505050815260200160028201548152602001600382018054610b1090612808565b80601f0160208091040260200160405190810160405280929190818152602001828054610b3c90612808565b8015610b895780601f10610b5e57610100808354040283529160200191610b89565b820191906000526020600020905b815481529060010190602001808311610b6c57829003601f168201915b50505050508152505081525050838281518110610bb657634e487b7160e01b600052603260045260246000fd5b60200260200101819052508080610bcc90612843565b9150505b81610bda81612843565b92505061056a565b6000816001600160401b03811115610c0a57634e487b7160e01b600052604160045260246000fd5b604051908082528060200260200182016040528015610c4357816020015b610c30611fcd565b815260200190600190039081610c285790505b509050600092505b81831015610cb957838381518110610c7357634e487b7160e01b600052603260045260246000fd5b6020026020010151818481518110610c9b57634e487b7160e01b600052603260045260246000fd5b60200260200101819052508280610cb190612843565b935050610c4b565b9450505050505b919050565b60008181548110610cd557600080fd5b9060005260206000209060150201600091509050806000015490806001016040518060a00160405290816000820160009054906101000a90046001600160a01b03166001600160a01b03166001600160a01b031681526020016001820154815260200160028201548152602001600382018054610d5190612808565b80601f0160208091040260200160405190810160405280929190818152602001828054610d7d90612808565b8015610dca5780601f10610d9f57610100808354040283529160200191610dca565b820191906000526020600020905b815481529060010190602001808311610dad57829003601f168201915b50505050508152602001600482018054610de390612808565b80601f0160208091040260200160405190810160405280929190818152602001828054610e0f90612808565b8015610e5c5780601f10610e3157610100808354040283529160200191610e5c565b820191906000526020600020905b815481529060010190602001808311610e3f57829003601f168201915b5050509190925250506040805160808101825260068501546001600160a01b038116825260ff600160a01b9091048116151560208084019190915260078701548385015260088701548216151560608401526009870154845160e08101909552600a880180548652600b8901805498999598929094169650939493929184019190610ee690612808565b80601f0160208091040260200160405190810160405280929190818152602001828054610f1290612808565b8015610f5f5780601f10610f3457610100808354040283529160200191610f5f565b820191906000526020600020905b815481529060010190602001808311610f4257829003601f168201915b50505050508152602001600282018054610f7890612808565b80601f0160208091040260200160405190810160405280929190818152602001828054610fa490612808565b8015610ff15780601f10610fc657610100808354040283529160200191610ff1565b820191906000526020600020905b815481529060010190602001808311610fd457829003601f168201915b505050505081526020016003820154815260200160048201805461101490612808565b80601f016020809104026020016040519081016040528092919081815260200182805461104090612808565b801561108d5780601f106110625761010080835404028352916020019161108d565b820191906000526020600020905b81548152906001019060200180831161107057829003601f168201915b505050505081526020016005820180546110a690612808565b80601f01602080910402602001604051908101604052809291908181526020018280546110d290612808565b801561111f5780601f106110f45761010080835404028352916020019161111f565b820191906000526020600020905b81548152906001019060200180831161110257829003601f168201915b5050505050815260200160068201548152505090806011016040518060800160405290816000820154815260200160018201805461115c90612808565b80601f016020809104026020016040519081016040528092919081815260200182805461118890612808565b80156111d55780601f106111aa576101008083540402835291602001916111d5565b820191906000526020600020905b8154815290600101906020018083116111b857829003601f168201915b50505050508152602001600282015481526020016003820180546111f890612808565b80601f016020809104026020016040519081016040528092919081815260200182805461122490612808565b80156112715780601f1061124657610100808354040283529160200191611271565b820191906000526020600020905b81548152906001019060200180831161125457829003601f168201915b505050505081525050905086565b60008083815481106112a157634e487b7160e01b600052603260045260246000fd5b906000526020600020906015020160090160006101000a81548160ff0219169083151502179055508060000151600083815481106112ef57634e487b7160e01b600052603260045260246000fd5b9060005260206000209060150201600a016000018190555080602001516000838154811061132d57634e487b7160e01b600052603260045260246000fd5b9060005260206000209060150201600a016001019080519060200190611354929190611f11565b5080604001516000838154811061137b57634e487b7160e01b600052603260045260246000fd5b9060005260206000209060150201600a0160020190805190602001906113a2929190611f11565b508060600151600083815481106113c957634e487b7160e01b600052603260045260246000fd5b9060005260206000209060150201600a016003018190555080608001516000838154811061140757634e487b7160e01b600052603260045260246000fd5b9060005260206000209060150201600a01600401908051906020019061142e929190611f11565b508060a001516000838154811061145557634e487b7160e01b600052603260045260246000fd5b9060005260206000209060150201600a01600501908051906020019061147c929190611f11565b508060c00151600083815481106114a357634e487b7160e01b600052603260045260246000fd5b60009182526020909120601060159092020101555050565b60606000805480602002602001604051908101604052809291908181526020016000905b82821015611aa35760008481526020908190206040805160c0810182526015860290920180548352815160a0810183526001820180546001600160a01b031682526002830154828701526003830154938201939093526004820180549495929492860193919260608401919061155490612808565b80601f016020809104026020016040519081016040528092919081815260200182805461158090612808565b80156115cd5780601f106115a2576101008083540402835291602001916115cd565b820191906000526020600020905b8154815290600101906020018083116115b057829003601f168201915b505050505081526020016004820180546115e690612808565b80601f016020809104026020016040519081016040528092919081815260200182805461161290612808565b801561165f5780601f106116345761010080835404028352916020019161165f565b820191906000526020600020905b81548152906001019060200180831161164257829003601f168201915b5050509190925250505081526040805160808101825260068401546001600160a01b038116825260ff600160a01b90910481161515602083810191909152600786015483850152600886015482161515606080850191909152818601939093526009860154909116151583850152825160e08101909352600a850180548452600b8601805493909501949092918401916116f890612808565b80601f016020809104026020016040519081016040528092919081815260200182805461172490612808565b80156117715780601f1061174657610100808354040283529160200191611771565b820191906000526020600020905b81548152906001019060200180831161175457829003601f168201915b5050505050815260200160028201805461178a90612808565b80601f01602080910402602001604051908101604052809291908181526020018280546117b690612808565b80156118035780601f106117d857610100808354040283529160200191611803565b820191906000526020600020905b8154815290600101906020018083116117e657829003601f168201915b505050505081526020016003820154815260200160048201805461182690612808565b80601f016020809104026020016040519081016040528092919081815260200182805461185290612808565b801561189f5780601f106118745761010080835404028352916020019161189f565b820191906000526020600020905b81548152906001019060200180831161188257829003601f168201915b505050505081526020016005820180546118b890612808565b80601f01602080910402602001604051908101604052809291908181526020018280546118e490612808565b80156119315780601f1061190657610100808354040283529160200191611931565b820191906000526020600020905b81548152906001019060200180831161191457829003601f168201915b505050505081526020016006820154815250508152602001601182016040518060800160405290816000820154815260200160018201805461197290612808565b80601f016020809104026020016040519081016040528092919081815260200182805461199e90612808565b80156119eb5780601f106119c0576101008083540402835291602001916119eb565b820191906000526020600020905b8154815290600101906020018083116119ce57829003601f168201915b5050505050815260200160028201548152602001600382018054611a0e90612808565b80601f0160208091040260200160405190810160405280929190818152602001828054611a3a90612808565b8015611a875780601f10611a5c57610100808354040283529160200191611a87565b820191906000526020600020905b815481529060010190602001808311611a6a57829003601f168201915b50505050508152505081525050815260200190600101906114df565b50505050905090565b3360008381548110611ace57634e487b7160e01b600052603260045260246000fd5b906000526020600020906015020160060160000160006101000a8154816001600160a01b0302191690836001600160a01b03160217905550806040015160008381548110611b2c57634e487b7160e01b600052603260045260246000fd5b906000526020600020906015020160060160010181905550806060015160008381548110611b6a57634e487b7160e01b600052603260045260246000fd5b906000526020600020906015020160060160020160006101000a81548160ff021916908315150217905550806020015160008381548110611bbb57634e487b7160e01b600052603260045260246000fd5b600091825260209091206006601590920201018054911515600160a01b0260ff60a01b199092169190911790555050565b611bf4611fcd565b6000548015611c4d576000611c0a6001836127f1565b81548110611c2857634e487b7160e01b600052603260045260246000fd5b9060005260206000209060150201600001546001611c4691906127d9565b8252611c52565b600082525b60208281018051339052848201518151830152604080860151825182015260808087015183519091015260608087015183518201526000805460018101825590805286517f290decd9548b62a8d60345a988386fc84ba6bc95484008f6362f93160ef3e5636015909202918201908155935180517f290decd9548b62a8d60345a988386fc84ba6bc95484008f6362f93160ef3e564830180546001600160a01b0319166001600160a01b03909216919091178155818701517f290decd9548b62a8d60345a988386fc84ba6bc95484008f6362f93160ef3e565840155938101517f290decd9548b62a8d60345a988386fc84ba6bc95484008f6362f93160ef3e5668301559182015180518896939493611d8f937f290decd9548b62a8d60345a988386fc84ba6bc95484008f6362f93160ef3e56701920190611f11565b5060808201518051611dab916004840191602090910190611f11565b50505060408281015180516006840180546020808501511515600160a01b0260ff60a01b196001600160a01b039095166001600160a01b0319909316929092179390931617905591810151600784015560609081015160088401805491151560ff19928316179055908401516009840180549115159190921617905560808301518051600a840190815581830151805192939192611e4f92600b8701920190611f11565b5060408201518051611e6b916002840191602090910190611f11565b506060820151600382015560808201518051611e91916004840191602090910190611f11565b5060a08201518051611ead916005840191602090910190611f11565b5060c0919091015160069091015560a08201518051601183019081556020808301518051611ee19260128701920190611f11565b506040820151600282015560608201518051611f07916003840191602090910190611f11565b5050505050505050565b828054611f1d90612808565b90600052602060002090601f016020900481019282611f3f5760008555611f85565b82601f10611f5857805160ff1916838001178555611f85565b82800160010185558215611f85579182015b82811115611f85578251825591602001919060010190611f6a565b50611f9192915061201a565b5090565b6040518060a0016040528060006001600160a01b03168152602001600081526020016000815260200160608152602001606081525090565b6040518060c0016040528060008152602001611fe7611f95565b8152602001611ff461202f565b815260006020820152604001612008612056565b8152602001612015612093565b905290565b5b80821115611f91576000815560010161201b565b60408051608081018252600080825260208201819052918101829052606081019190915290565b6040518060e00160405280600081526020016060815260200160608152602001600081526020016060815260200160608152602001600081525090565b6040518060800160405280600081526020016060815260200160008152602001606081525090565b80356001600160a01b0381168114610cc057600080fd5b80358015158114610cc057600080fd5b600082601f8301126120f2578081fd5b81356001600160401b0381111561210b5761210b612874565b61211e601f8201601f19166020016127b0565b818152846020838601011115612132578283fd5b816020850160208301379081016020019190915292915050565b60006020828403121561215d578081fd5b81356001600160401b0380821115612173578283fd5b9083019060a08286031215612186578283fd5b60405160a0810181811083821117156121a1576121a1612874565b6040526121ad836120bb565b815260208301356020820152604083013560408201526060830135828111156121d4578485fd5b6121e0878286016120e2565b6060830152506080830135828111156121f7578485fd5b612203878286016120e2565b60808301525095945050505050565b600060208284031215612223578081fd5b5035919050565b60008082840360a081121561223d578182fd5b833592506080601f1982011215612252578182fd5b50604051608081018181106001600160401b038211171561227557612275612874565b604052612284602085016120bb565b8152612292604085016120d2565b6020820152606084013560408201526122ad608085016120d2565b6060820152809150509250929050565b600080604083850312156122cf578182fd5b8235915060208301356001600160401b03808211156122ec578283fd5b90840190608082870312156122ff578283fd5b60405160808101818110838211171561231a5761231a612874565b60405282358152602083013582811115612332578485fd5b61233e888286016120e2565b6020830152506040830135604082015260608301358281111561235f578485fd5b61236b888286016120e2565b6060830152508093505050509250929050565b60008060408385031215612390578182fd5b8235915060208301356001600160401b03808211156123ad578283fd5b9084019060e082870312156123c0578283fd5b6123ca60e06127b0565b823581526020830135828111156123df578485fd5b6123eb888286016120e2565b602083015250604083013582811115612402578485fd5b61240e888286016120e2565b6040830152506060830135606082015260808301358281111561242f578485fd5b61243b888286016120e2565b60808301525060a083013582811115612452578485fd5b61245e888286016120e2565b60a08301525060c083013560c08201528093505050509250929050565b60008151808452815b818110156124a057602081850181015186830182015201612484565b818111156124b15782602083870101525b50601f01601f19169290920160200192915050565b600060018060a01b0382511683526020820151602084015260408201516040840152606082015160a0606085015261250160a085018261247b565b90506080830151848203608086015261251a828261247b565b95945050505050565b80516001600160a01b03168252602080820151151590830152604080820151908301526060908101511515910152565b600081518352602082015160806020850152612572608085018261247b565b9050604083015160408501526060830151848203606086015261251a828261247b565b600081518352602082015160e060208501526125b460e085018261247b565b9050604083015184820360408601526125cd828261247b565b91505060608301516060850152608083015184820360808601526125f1828261247b565b91505060a083015184820360a086015261260b828261247b565b91505060c083015160c08501528091505092915050565b6000602080830181845280855180835260408601915060408482028701019250838701855b8281101561267557603f198886030184526126638583516124c6565b94509285019290850190600101612647565b5092979650505050505050565b60208082528251828201819052600091906040908185019080840286018301878501865b8381101561273d57603f1989840301855281516101208151855288820151818a8701526126d5828701826124c6565b915050878201516126e889870182612523565b506060820151151560c0860152608082015185820360e087015261270c8282612595565b91505060a082015191508481036101008601526127298183612553565b9689019694505050908601906001016126a6565b509098975050505050505050565b6000610120888352806020840152612765818401896124c6565b90506127746040840188612523565b85151560c084015282810360e084015261278e8186612595565b90508281036101008401526127a38185612553565b9998505050505050505050565b6040518181016001600160401b03811182821017156127d1576127d1612874565b604052919050565b600082198211156127ec576127ec61285e565b500190565b6000828210156128035761280361285e565b500390565b60028104600182168061281c57607f821691505b6020821081141561283d57634e487b7160e01b600052602260045260246000fd5b50919050565b60006000198214156128575761285761285e565b5060010190565b634e487b7160e01b600052601160045260246000fd5b634e487b7160e01b600052604160045260246000fdfea2646970667358221220feab7a9311a83e4339b281a49556b9d57be86aac7f9aad2d23c84539194d86a664736f6c63430008000033",
  "immutableReferences": {},
  "source": "// SPDX-License-Identifier: MIT\npragma solidity ^0.8.0;\n\nimport \"./registrazione.sol\";\nimport \"./interfaces.sol\";\n\n    \ncontract Allevamento{\n\n  schedaLatte [] public schede;\n    \n//   function get_registrati_allevamento(address _contractAddress)  external view  returns(Utente[] memory) {\n       \n//       return reg(_contractAddress).get_registrati();\n      \n        \n//     }\n    \n\n   \n   function aggiornaScheda(Allevatore memory _datiAllevatore) external{\n       \n       schedaLatte memory scheda_singola;\n       uint l;\n       l=schede.length;\n       if (l>0){\n       scheda_singola.progressivo=schede[l-1].progressivo +1;\n       }\n       else{\n           scheda_singola.progressivo=0;\n       }\n       scheda_singola.datiAllevatore.id_allevatore=msg.sender;\n       scheda_singola.datiAllevatore.lt_munti=_datiAllevatore.lt_munti;\n       scheda_singola.datiAllevatore.id_lotto_munto=_datiAllevatore.id_lotto_munto;\n       scheda_singola.datiAllevatore.data_mungitura=_datiAllevatore.data_mungitura;\n       scheda_singola.datiAllevatore.luogo_mungitura=_datiAllevatore.luogo_mungitura;\n       \n       \n       schede.push(scheda_singola);\n      \n   }\n   \n   function aggiornaSchedaAnalisi(uint _progressivo,Analista memory _analista) external{\n      \n\n      schede[_progressivo].analista.idAnalista=msg.sender;\n      schede[_progressivo].analista.phLatte=_analista.phLatte;\n      schede[_progressivo].analista.esitoTests=_analista.esitoTests;\n      schede[_progressivo].analista.flagMalattie=_analista.flagMalattie;\n      \n       \n   }\n   \n   function aggiornaImbot(uint _progressivo,bottiglia memory _bot) external{\n       schede[_progressivo].flagImbot = true;\n       schede[_progressivo].bot.squadraImbot = _bot.squadraImbot;\n       schede[_progressivo].bot.tipoLatte = _bot.tipoLatte;\n       schede[_progressivo].bot.lottoBotForm = _bot.lottoBotForm;\n       schede[_progressivo].bot.dataScadenza = _bot.dataScadenza;\n   }\n   \n   function aggiornaCaseificazione(uint _progressivo, formaggio memory _forma) external{\n       schede[_progressivo].flagImbot= false;\n       schede[_progressivo].forma.lottoBotForm = _forma.lottoBotForm;\n       schede[_progressivo].forma.dataScadenza = _forma.dataScadenza;\n       schede[_progressivo].forma.nomeForm = _forma.nomeForm;\n       schede[_progressivo].forma.numForma = _forma.numForma;\n       schede[_progressivo].forma.dataCaseificazione = _forma.dataCaseificazione;\n       schede[_progressivo].forma.luogoCaseificazione= _forma.luogoCaseificazione;\n       schede[_progressivo].forma.mesiStagionatura = _forma.mesiStagionatura;\n       \n   }\n\n   function get_schede() external view returns(schedaLatte[] memory){\n       return schede;\n   }\n   \n   function get_schede_filtro_munto(uint _id_lotto_munto) external view returns(schedaLatte[] memory){\n       uint l;\n       l=schede.length;\n       schedaLatte [] memory schede_filtro=new schedaLatte[](l);\n       uint i;\n       uint j=0;\n       for(i=0;i<l;i++){\n           if (schede[i].datiAllevatore.id_lotto_munto == _id_lotto_munto){\n               schede_filtro[j]=schede[i];\n               j++;\n           }\n       }\n       schedaLatte [] memory schede_filtro_stampa = new schedaLatte[](j);\n       \n       for (i=0;i<j;i++){\n          schede_filtro_stampa[i] = schede_filtro[i];\n       }\n       return schede_filtro_stampa;\n   }\n   \n   function getAllevatori() external view returns(Allevatore [] memory){\n       uint l=schede.length;\n       uint i;\n       Allevatore [] memory allevatori= new Allevatore [](l);\n       for (i=0;i<l;i++){\n           allevatori[i] = schede[i].datiAllevatore;\n       }\n       \n       return allevatori;    // per il momento facciamo restituire tutti i dati dell'allevatore per ciascuna scheda\n       \n   }\n   \n    \n   \n    \n    \n    \n}",
  "sourcePath": "C:\\Users\\Nicola Di Chiano\\Desktop\\azienda_cyber\\Milkchain\\contracts\\Allevamento.sol",
  "compiler": {
    "name": "solc",
    "version": "0.8.0+commit.c7dfd78e.Emscripten.clang"
  },
  "schemaVersion": "3.4.3",
  "updatedAt": "2021-11-04T11:52:04.088Z",
  "networkType": "ethereum",
  "devdoc": {
    "kind": "dev",
    "methods": {},
    "version": 1
  },
  "userdoc": {
    "kind": "user",
    "methods": {},
    "version": 1
  }
}