{
  "contractName": "Analisi",
  "abi": [
    {
      "inputs": [
        {
          "internalType": "address",
          "name": "_contractAddress",
          "type": "address"
        },
        {
          "internalType": "uint256",
          "name": "_progressivo",
          "type": "uint256"
        },
        {
          "components": [
            {
              "internalType": "address",
              "name": "idAnalista",
              "type": "address"
            },
            {
              "internalType": "bool",
              "name": "flagMalattie",
              "type": "bool"
            },
            {
              "internalType": "uint256",
              "name": "phLatte",
              "type": "uint256"
            },
            {
              "internalType": "bool",
              "name": "esitoTests",
              "type": "bool"
            }
          ],
          "internalType": "struct Analista",
          "name": "_analista",
          "type": "tuple"
        }
      ],
      "name": "aggiorna",
      "outputs": [],
      "stateMutability": "nonpayable",
      "type": "function"
    },
    {
      "inputs": [
        {
          "internalType": "address",
          "name": "_contractAddress",
          "type": "address"
        }
      ],
      "name": "get_schede",
      "outputs": [
        {
          "components": [
            {
              "internalType": "uint256",
              "name": "progressivo",
              "type": "uint256"
            },
            {
              "components": [
                {
                  "internalType": "address",
                  "name": "id_allevatore",
                  "type": "address"
                },
                {
                  "internalType": "uint256",
                  "name": "lt_munti",
                  "type": "uint256"
                },
                {
                  "internalType": "uint256",
                  "name": "id_lotto_munto",
                  "type": "uint256"
                },
                {
                  "internalType": "string",
                  "name": "luogo_mungitura",
                  "type": "string"
                },
                {
                  "internalType": "string",
                  "name": "data_mungitura",
                  "type": "string"
                }
              ],
              "internalType": "struct Allevatore",
              "name": "datiAllevatore",
              "type": "tuple"
            },
            {
              "components": [
                {
                  "internalType": "address",
                  "name": "idAnalista",
                  "type": "address"
                },
                {
                  "internalType": "bool",
                  "name": "flagMalattie",
                  "type": "bool"
                },
                {
                  "internalType": "uint256",
                  "name": "phLatte",
                  "type": "uint256"
                },
                {
                  "internalType": "bool",
                  "name": "esitoTests",
                  "type": "bool"
                }
              ],
              "internalType": "struct Analista",
              "name": "analista",
              "type": "tuple"
            },
            {
              "internalType": "bool",
              "name": "flagImbot",
              "type": "bool"
            },
            {
              "components": [
                {
                  "internalType": "uint256",
                  "name": "lottoBotForm",
                  "type": "uint256"
                },
                {
                  "internalType": "string",
                  "name": "dataScadenza",
                  "type": "string"
                },
                {
                  "internalType": "string",
                  "name": "nomeForm",
                  "type": "string"
                },
                {
                  "internalType": "uint256",
                  "name": "numForma",
                  "type": "uint256"
                },
                {
                  "internalType": "string",
                  "name": "dataCaseificazione",
                  "type": "string"
                },
                {
                  "internalType": "string",
                  "name": "luogoCaseificazione",
                  "type": "string"
                },
                {
                  "internalType": "uint256",
                  "name": "mesiStagionatura",
                  "type": "uint256"
                }
              ],
              "internalType": "struct formaggio",
              "name": "forma",
              "type": "tuple"
            },
            {
              "components": [
                {
                  "internalType": "uint256",
                  "name": "squadraImbot",
                  "type": "uint256"
                },
                {
                  "internalType": "string",
                  "name": "tipoLatte",
                  "type": "string"
                },
                {
                  "internalType": "uint256",
                  "name": "lottoBotForm",
                  "type": "uint256"
                },
                {
                  "internalType": "string",
                  "name": "dataScadenza",
                  "type": "string"
                }
              ],
              "internalType": "struct bottiglia",
              "name": "bot",
              "type": "tuple"
            }
          ],
          "internalType": "struct schedaLatte[]",
          "name": "",
          "type": "tuple[]"
        }
      ],
      "stateMutability": "view",
      "type": "function",
      "constant": true
    }
  ],
  "bytecode": "0x608060405234801561001057600080fd5b506109d9806100206000396000f3fe608060405234801561001057600080fd5b50600436106100365760003560e01c80631f5c52661461003b578063dd8f7aa114610064575b600080fd5b61004e61004936600461047c565b610079565b60405161005b91906107d0565b60405180910390f35b61007761007236600461049f565b6100f8565b005b6060816001600160a01b031663d03dc2b76040518163ffffffff1660e01b815260040160006040518083038186803b1580156100b457600080fd5b505afa1580156100c8573d6000803e3d6000fd5b505050506040513d6000823e601f3d908101601f191682016040526100f0919081019061054b565b90505b919050565b60405163dba1c50b60e01b81526001600160a01b0384169063dba1c50b9061012690859085906004016108fa565b600060405180830381600087803b15801561014057600080fd5b505af1158015610154573d6000803e3d6000fd5b50505050505050565b80516100f38161097d565b80516100f381610995565b600082601f830112610183578081fd5b81516001600160401b0381111561019c5761019c610967565b6101af601f8201601f191660200161090e565b8181528460208386010111156101c3578283fd5b6101d4826020830160208701610937565b949350505050565b600060a082840312156101ed578081fd5b60405160a081016001600160401b03828210818311171561021057610210610967565b816040528293506102208561015d565b83526020850151602084015260408501516040840152606085015191508082111561024a57600080fd5b61025686838701610173565b6060840152608085015191508082111561026f57600080fd5b5061027c85828601610173565b6080830152505092915050565b60006080828403121561029a578081fd5b604051608081018181106001600160401b03821117156102bc576102bc610967565b806040525080915082516102cf8161097d565b815260208301516102df81610995565b60208201526040838101519082015260608301516102fc81610995565b6060919091015292915050565b60006080828403121561031a578081fd5b604051608081016001600160401b03828210818311171561033d5761033d610967565b8160405282935084518352602085015191508082111561035c57600080fd5b61036886838701610173565b602084015260408501516040840152606085015191508082111561038b57600080fd5b5061039885828601610173565b6060830152505092915050565b600060e082840312156103b6578081fd5b6103c060e061090e565b90508151815260208201516001600160401b03808211156103e057600080fd5b6103ec85838601610173565b6020840152604084015191508082111561040557600080fd5b61041185838601610173565b604084015260608401516060840152608084015191508082111561043457600080fd5b61044085838601610173565b608084015260a084015191508082111561045957600080fd5b5061046684828501610173565b60a08301525060c082015160c082015292915050565b60006020828403121561048d578081fd5b81356104988161097d565b9392505050565b600080600083850360c08112156104b4578283fd5b84356104bf8161097d565b9350602085013592506080603f19820112156104d9578182fd5b50604051608081018181106001600160401b03821117156104fc576104fc610967565b604090815285013561050d8161097d565b8152606085013561051d81610995565b60208201526080850135604082015260a085013561053a81610995565b606082015292959194509192509050565b6000602080838503121561055d578182fd5b82516001600160401b0380821115610573578384fd5b818501915085601f830112610586578384fd5b81518181111561059857610598610967565b6105a5848583020161090e565b81815284810190848601875b84811015610687578151870161012080601f19838f030112156105d2578a8bfd5b6105dc60c061090e565b8a83015181526040830151898111156105f3578c8dfd5b6106018f8d838701016101dc565b8c8301525060606106148f828601610289565b604083015261062560e08501610168565b908201526101008301518981111561063b578c8dfd5b6106498f8d838701016103a5565b608083015250908201519088821115610660578b8cfd5b61066e8e8c84860101610309565b60a08201528652505092870192908701906001016105b1565b50909998505050505050505050565b15159052565b600081518084526106b4816020860160208601610937565b601f01601f19169290920160200192915050565b80516001600160a01b03168252602080820151151590830152604080820151908301526060908101511515910152565b600081518352602082015160806020850152610717608085018261069c565b9050604083015160408501526060830151848203606086015261073a828261069c565b95945050505050565b600081518352602082015160e0602085015261076260e085018261069c565b90506040830151848203604086015261077b828261069c565b915050606083015160608501526080830151848203608086015261079f828261069c565b91505060a083015184820360a08601526107b9828261069c565b91505060c083015160c08501528091505092915050565b60208082528251828201819052600091906040908185019080840286018301878501865b838110156108ec57888303603f190185528151805184528781015161012089860181905281516001600160a01b031690860152808901516101408601528781015161016086015260608082015160a0610180880181905291929161085c6101c089018361069c565b60809384015189820361011f19016101a08b01529390925061087e838561069c565b93508b86015192506108928c8a01846106c8565b93850151936108a460c08a0186610696565b85015188840360e08a015293506108bb8385610743565b9401518785036101008901529392506108d89150829050836106f8565b9689019694505050908601906001016107f4565b509098975050505050505050565b82815260a0810161049860208301846106c8565b6040518181016001600160401b038111828210171561092f5761092f610967565b604052919050565b60005b8381101561095257818101518382015260200161093a565b83811115610961576000848401525b50505050565b634e487b7160e01b600052604160045260246000fd5b6001600160a01b038116811461099257600080fd5b50565b801515811461099257600080fdfea26469706673582212207f731c5df1b0df1eff9f76f2bbf2cf6c07a4de9e1fa2cb112910d820dad64bcb64736f6c63430008000033",
  "immutableReferences": {},
  "source": "// SPDX-License-Identifier: MIT\npragma solidity ^0.8.0;\n\nimport \"./registrazione.sol\";\nimport \"./Allevamento.sol\";\nimport \"./interfaces.sol\";\n\n\n\ncontract Analisi{\n    \n    // function getAllregistrati(address _contractAddress)  external view  returns(Utente[] memory) {\n       \n    //   return reg(_contractAddress).get_registrati();\n      \n        \n    // }\n    \n\n   \n   function aggiorna(address _contractAddress,uint _progressivo, Analista memory _analista) external {\n      \n      Ischede(_contractAddress).aggiornaSchedaAnalisi(_progressivo, _analista);\n       \n   }\n   \n   function get_schede(address _contractAddress) external view returns(schedaLatte[] memory){\n       \n       return Ischede(_contractAddress).get_schede();\n   }\n   \n\n  \n    \n    \n    \n}",
  "sourcePath": "C:\\Users\\Nicola Di Chiano\\Desktop\\azienda_cyber\\Milkchain\\contracts\\analisi.sol",
  "compiler": {
    "name": "solc",
    "version": "0.8.0+commit.c7dfd78e.Emscripten.clang"
  },
  "schemaVersion": "3.4.3",
  "updatedAt": "2021-11-04T11:52:04.117Z",
  "networkType": "ethereum",
  "devdoc": {
    "kind": "dev",
    "methods": {},
    "version": 1
  },
  "userdoc": {
    "kind": "user",
    "methods": {},
    "version": 1
  }
}