{
  "contractName": "Produzione",
  "abi": [
    {
      "inputs": [
        {
          "internalType": "address",
          "name": "_contractAddress",
          "type": "address"
        },
        {
          "internalType": "uint256",
          "name": "_progressivo",
          "type": "uint256"
        },
        {
          "components": [
            {
              "internalType": "uint256",
              "name": "squadraImbot",
              "type": "uint256"
            },
            {
              "internalType": "string",
              "name": "tipoLatte",
              "type": "string"
            },
            {
              "internalType": "uint256",
              "name": "lottoBotForm",
              "type": "uint256"
            },
            {
              "internalType": "string",
              "name": "dataScadenza",
              "type": "string"
            }
          ],
          "internalType": "struct bottiglia",
          "name": "_bot",
          "type": "tuple"
        }
      ],
      "name": "aggiornaBot",
      "outputs": [],
      "stateMutability": "nonpayable",
      "type": "function"
    },
    {
      "inputs": [
        {
          "internalType": "address",
          "name": "_contractAddress",
          "type": "address"
        },
        {
          "internalType": "uint256",
          "name": "_progressivo",
          "type": "uint256"
        },
        {
          "components": [
            {
              "internalType": "uint256",
              "name": "lottoBotForm",
              "type": "uint256"
            },
            {
              "internalType": "string",
              "name": "dataScadenza",
              "type": "string"
            },
            {
              "internalType": "string",
              "name": "nomeForm",
              "type": "string"
            },
            {
              "internalType": "uint256",
              "name": "numForma",
              "type": "uint256"
            },
            {
              "internalType": "string",
              "name": "dataCaseificazione",
              "type": "string"
            },
            {
              "internalType": "string",
              "name": "luogoCaseificazione",
              "type": "string"
            },
            {
              "internalType": "uint256",
              "name": "mesiStagionatura",
              "type": "uint256"
            }
          ],
          "internalType": "struct formaggio",
          "name": "_forma",
          "type": "tuple"
        }
      ],
      "name": "aggiornaCaseif",
      "outputs": [],
      "stateMutability": "nonpayable",
      "type": "function"
    },
    {
      "inputs": [
        {
          "internalType": "address",
          "name": "_contractAddress",
          "type": "address"
        }
      ],
      "name": "get_schede",
      "outputs": [
        {
          "components": [
            {
              "internalType": "uint256",
              "name": "progressivo",
              "type": "uint256"
            },
            {
              "components": [
                {
                  "internalType": "address",
                  "name": "id_allevatore",
                  "type": "address"
                },
                {
                  "internalType": "uint256",
                  "name": "lt_munti",
                  "type": "uint256"
                },
                {
                  "internalType": "uint256",
                  "name": "id_lotto_munto",
                  "type": "uint256"
                },
                {
                  "internalType": "string",
                  "name": "luogo_mungitura",
                  "type": "string"
                },
                {
                  "internalType": "string",
                  "name": "data_mungitura",
                  "type": "string"
                }
              ],
              "internalType": "struct Allevatore",
              "name": "datiAllevatore",
              "type": "tuple"
            },
            {
              "components": [
                {
                  "internalType": "address",
                  "name": "idAnalista",
                  "type": "address"
                },
                {
                  "internalType": "bool",
                  "name": "flagMalattie",
                  "type": "bool"
                },
                {
                  "internalType": "uint256",
                  "name": "phLatte",
                  "type": "uint256"
                },
                {
                  "internalType": "bool",
                  "name": "esitoTests",
                  "type": "bool"
                }
              ],
              "internalType": "struct Analista",
              "name": "analista",
              "type": "tuple"
            },
            {
              "internalType": "bool",
              "name": "flagImbot",
              "type": "bool"
            },
            {
              "components": [
                {
                  "internalType": "uint256",
                  "name": "lottoBotForm",
                  "type": "uint256"
                },
                {
                  "internalType": "string",
                  "name": "dataScadenza",
                  "type": "string"
                },
                {
                  "internalType": "string",
                  "name": "nomeForm",
                  "type": "string"
                },
                {
                  "internalType": "uint256",
                  "name": "numForma",
                  "type": "uint256"
                },
                {
                  "internalType": "string",
                  "name": "dataCaseificazione",
                  "type": "string"
                },
                {
                  "internalType": "string",
                  "name": "luogoCaseificazione",
                  "type": "string"
                },
                {
                  "internalType": "uint256",
                  "name": "mesiStagionatura",
                  "type": "uint256"
                }
              ],
              "internalType": "struct formaggio",
              "name": "forma",
              "type": "tuple"
            },
            {
              "components": [
                {
                  "internalType": "uint256",
                  "name": "squadraImbot",
                  "type": "uint256"
                },
                {
                  "internalType": "string",
                  "name": "tipoLatte",
                  "type": "string"
                },
                {
                  "internalType": "uint256",
                  "name": "lottoBotForm",
                  "type": "uint256"
                },
                {
                  "internalType": "string",
                  "name": "dataScadenza",
                  "type": "string"
                }
              ],
              "internalType": "struct bottiglia",
              "name": "bot",
              "type": "tuple"
            }
          ],
          "internalType": "struct schedaLatte[]",
          "name": "",
          "type": "tuple[]"
        }
      ],
      "stateMutability": "view",
      "type": "function",
      "constant": true
    }
  ],
  "bytecode": "0x608060405234801561001057600080fd5b50610bc5806100206000396000f3fe608060405234801561001057600080fd5b50600436106100415760003560e01c80631f5c526614610046578063619e1abb1461006f578063d171ceb614610084575b600080fd5b6100596100543660046104fb565b610097565b6040516100669190610985565b60405180910390f35b61008261007d36600461051e565b610116565b005b6100826100923660046105f1565b61017b565b6060816001600160a01b031663d03dc2b76040518163ffffffff1660e01b815260040160006040518083038186803b1580156100d257600080fd5b505afa1580156100e6573d6000803e3d6000fd5b505050506040513d6000823e601f3d908101601f1916820160405261010e9190810190610700565b90505b919050565b6040516310d8a09760e21b81526001600160a01b03841690634362825c906101449085908590600401610aaf565b600060405180830381600087803b15801561015e57600080fd5b505af1158015610172573d6000803e3d6000fd5b50505050505050565b604051632cdc9f4160e21b81526001600160a01b0384169063b3727d04906101449085908590600401610ac8565b805161011181610b77565b8051801515811461011157600080fd5b600082601f8301126101d4578081fd5b81356101e76101e282610b0a565b610ae1565b8181528460208386010111156101fb578283fd5b816020850160208301379081016020019190915292915050565b600082601f830112610225578081fd5b81516102336101e282610b0a565b818152846020838601011115610247578283fd5b610258826020830160208701610b31565b949350505050565b600060a08284031215610271578081fd5b60405160a081016001600160401b03828210818311171561029457610294610b61565b816040528293506102a4856101a9565b8352602085015160208401526040850151604084015260608501519150808211156102ce57600080fd5b6102da86838701610215565b606084015260808501519150808211156102f357600080fd5b5061030085828601610215565b6080830152505092915050565b60006080828403121561031e578081fd5b604051608081018181106001600160401b038211171561034057610340610b61565b8060405250809150825161035381610b77565b8152610361602084016101b4565b60208201526040830151604082015261037c606084016101b4565b60608201525092915050565b600060808284031215610399578081fd5b604051608081016001600160401b0382821081831117156103bc576103bc610b61565b816040528293508451835260208501519150808211156103db57600080fd5b6103e786838701610215565b602084015260408501516040840152606085015191508082111561040a57600080fd5b5061041785828601610215565b6060830152505092915050565b600060e08284031215610435578081fd5b61043f60e0610ae1565b90508151815260208201516001600160401b038082111561045f57600080fd5b61046b85838601610215565b6020840152604084015191508082111561048457600080fd5b61049085838601610215565b60408401526060840151606084015260808401519150808211156104b357600080fd5b6104bf85838601610215565b608084015260a08401519150808211156104d857600080fd5b506104e584828501610215565b60a08301525060c082015160c082015292915050565b60006020828403121561050c578081fd5b813561051781610b77565b9392505050565b600080600060608486031215610532578182fd5b833561053d81610b77565b92506020840135915060408401356001600160401b038082111561055f578283fd5b9085019060808288031215610572578283fd5b60405160808101818110838211171561058d5761058d610b61565b604052823581526020830135828111156105a5578485fd5b6105b1898286016101c4565b602083015250604083013560408201526060830135828111156105d2578485fd5b6105de898286016101c4565b6060830152508093505050509250925092565b600080600060608486031215610605578081fd5b833561061081610b77565b92506020840135915060408401356001600160401b0380821115610632578283fd5b9085019060e08288031215610645578283fd5b61064f60e0610ae1565b82358152602083013582811115610664578485fd5b610670898286016101c4565b602083015250604083013582811115610687578485fd5b610693898286016101c4565b604083015250606083013560608201526080830135828111156106b4578485fd5b6106c0898286016101c4565b60808301525060a0830135828111156106d7578485fd5b6106e3898286016101c4565b60a08301525060c083013560c08201528093505050509250925092565b60006020808385031215610712578182fd5b82516001600160401b0380821115610728578384fd5b818501915085601f83011261073b578384fd5b81518181111561074d5761074d610b61565b61075a8485830201610ae1565b81815284810190848601875b8481101561083c578151870161012080601f19838f03011215610787578a8bfd5b61079160c0610ae1565b8a83015181526040830151898111156107a8578c8dfd5b6107b68f8d83870101610260565b8c8301525060606107c98f82860161030d565b60408301526107da60e085016101b4565b90820152610100830151898111156107f0578c8dfd5b6107fe8f8d83870101610424565b608083015250908201519088821115610815578b8cfd5b6108238e8c84860101610388565b60a0820152865250509287019290870190600101610766565b50909998505050505050505050565b15159052565b60008151808452610869816020860160208601610b31565b601f01601f19169290920160200192915050565b80516001600160a01b03168252602080820151151590830152604080820151908301526060908101511515910152565b6000815183526020820151608060208501526108cc6080850182610851565b905060408301516040850152606083015184820360608601526108ef8282610851565b95945050505050565b600081518352602082015160e0602085015261091760e0850182610851565b9050604083015184820360408601526109308282610851565b91505060608301516060850152608083015184820360808601526109548282610851565b91505060a083015184820360a086015261096e8282610851565b91505060c083015160c08501528091505092915050565b60208082528251828201819052600091906040908185019080840286018301878501865b83811015610aa157888303603f190185528151805184528781015161012089860181905281516001600160a01b031690860152808901516101408601528781015161016086015260608082015160a06101808801819052919291610a116101c0890183610851565b60809384015189820361011f19016101a08b015293909250610a338385610851565b93508b8601519250610a478c8a018461087d565b9385015193610a5960c08a018661084b565b85015188840360e08a01529350610a7083856108f8565b940151878503610100890152939250610a8d9150829050836108ad565b9689019694505050908601906001016109a9565b509098975050505050505050565b60008382526040602083015261025860408301846108ad565b60008382526040602083015261025860408301846108f8565b6040518181016001600160401b0381118282101715610b0257610b02610b61565b604052919050565b60006001600160401b03821115610b2357610b23610b61565b50601f01601f191660200190565b60005b83811015610b4c578181015183820152602001610b34565b83811115610b5b576000848401525b50505050565b634e487b7160e01b600052604160045260246000fd5b6001600160a01b0381168114610b8c57600080fd5b5056fea264697066735822122089462ed0215d01863ad3aac14ab821f20dfd7c36f9396a9a037114dc9267748064736f6c63430008000033",
  "immutableReferences": {},
  "source": "// SPDX-License-Identifier: MIT\r\npragma solidity ^0.8.0;\r\n\r\nimport \"./registrazione.sol\";\r\nimport \"./Allevamento.sol\";\r\nimport \"./interfaces.sol\";\r\n\r\n\r\ncontract Produzione{\r\n    \r\n   //  function getAllregistrati(address _contractAddress)  external view  returns(Utente[] memory) {\r\n       \r\n   //    return reg(_contractAddress).get_registrati();\r\n      \r\n        \r\n   //  }\r\n\r\n   \r\n   function aggiornaBot(address _contractAddress,uint _progressivo,bottiglia memory _bot) external {\r\n      \r\n      Ischede(_contractAddress).aggiornaImbot( _progressivo, _bot);\r\n       \r\n   }\r\n   \r\n   function aggiornaCaseif(address _contractAddress,uint _progressivo,formaggio memory _forma) external {\r\n      \r\n      Ischede(_contractAddress).aggiornaCaseificazione( _progressivo,  _forma);\r\n       \r\n   }\r\n   \r\n   function get_schede(address _contractAddress) external view returns(schedaLatte[] memory){\r\n       \r\n       return Ischede(_contractAddress).get_schede();\r\n   }\r\n   \r\n\r\n  \r\n    \r\n    \r\n    \r\n}",
  "sourcePath": "C:\\Users\\Nicola Di Chiano\\Desktop\\azienda_cyber\\Milkchain\\contracts\\produzione.sol",
  "compiler": {
    "name": "solc",
    "version": "0.8.0+commit.c7dfd78e.Emscripten.clang"
  },
  "schemaVersion": "3.4.3",
  "updatedAt": "2021-11-04T11:52:04.136Z",
  "networkType": "ethereum",
  "devdoc": {
    "kind": "dev",
    "methods": {},
    "version": 1
  },
  "userdoc": {
    "kind": "user",
    "methods": {},
    "version": 1
  }
}