{
  "contractName": "Registrazione",
  "abi": [
    {
      "inputs": [],
      "stateMutability": "nonpayable",
      "type": "constructor"
    },
    {
      "inputs": [
        {
          "internalType": "uint256",
          "name": "",
          "type": "uint256"
        }
      ],
      "name": "lista_utenti",
      "outputs": [
        {
          "internalType": "address",
          "name": "id",
          "type": "address"
        },
        {
          "internalType": "string",
          "name": "mansione",
          "type": "string"
        },
        {
          "internalType": "address",
          "name": "password",
          "type": "address"
        },
        {
          "internalType": "bool",
          "name": "check_reg",
          "type": "bool"
        }
      ],
      "stateMutability": "view",
      "type": "function",
      "constant": true
    },
    {
      "inputs": [],
      "name": "organizzatore",
      "outputs": [
        {
          "internalType": "address",
          "name": "",
          "type": "address"
        }
      ],
      "stateMutability": "view",
      "type": "function",
      "constant": true
    },
    {
      "inputs": [
        {
          "internalType": "address",
          "name": "",
          "type": "address"
        }
      ],
      "name": "utenti",
      "outputs": [
        {
          "internalType": "address",
          "name": "id",
          "type": "address"
        },
        {
          "internalType": "string",
          "name": "mansione",
          "type": "string"
        },
        {
          "internalType": "address",
          "name": "password",
          "type": "address"
        },
        {
          "internalType": "bool",
          "name": "check_reg",
          "type": "bool"
        }
      ],
      "stateMutability": "view",
      "type": "function",
      "constant": true
    },
    {
      "inputs": [
        {
          "internalType": "address",
          "name": "indirizzo_utente",
          "type": "address"
        },
        {
          "internalType": "string",
          "name": "mans",
          "type": "string"
        }
      ],
      "name": "register",
      "outputs": [],
      "stateMutability": "nonpayable",
      "type": "function"
    },
    {
      "inputs": [
        {
          "internalType": "address",
          "name": "_contractAddress",
          "type": "address"
        }
      ],
      "name": "get_schede",
      "outputs": [
        {
          "components": [
            {
              "internalType": "uint256",
              "name": "progressivo",
              "type": "uint256"
            },
            {
              "components": [
                {
                  "internalType": "address",
                  "name": "id_allevatore",
                  "type": "address"
                },
                {
                  "internalType": "uint256",
                  "name": "lt_munti",
                  "type": "uint256"
                },
                {
                  "internalType": "uint256",
                  "name": "id_lotto_munto",
                  "type": "uint256"
                },
                {
                  "internalType": "string",
                  "name": "luogo_mungitura",
                  "type": "string"
                },
                {
                  "internalType": "string",
                  "name": "data_mungitura",
                  "type": "string"
                }
              ],
              "internalType": "struct Allevatore",
              "name": "datiAllevatore",
              "type": "tuple"
            },
            {
              "components": [
                {
                  "internalType": "address",
                  "name": "idAnalista",
                  "type": "address"
                },
                {
                  "internalType": "bool",
                  "name": "flagMalattie",
                  "type": "bool"
                },
                {
                  "internalType": "uint256",
                  "name": "phLatte",
                  "type": "uint256"
                },
                {
                  "internalType": "bool",
                  "name": "esitoTests",
                  "type": "bool"
                }
              ],
              "internalType": "struct Analista",
              "name": "analista",
              "type": "tuple"
            },
            {
              "internalType": "bool",
              "name": "flagImbot",
              "type": "bool"
            },
            {
              "components": [
                {
                  "internalType": "uint256",
                  "name": "lottoBotForm",
                  "type": "uint256"
                },
                {
                  "internalType": "string",
                  "name": "dataScadenza",
                  "type": "string"
                },
                {
                  "internalType": "string",
                  "name": "nomeForm",
                  "type": "string"
                },
                {
                  "internalType": "uint256",
                  "name": "numForma",
                  "type": "uint256"
                },
                {
                  "internalType": "string",
                  "name": "dataCaseificazione",
                  "type": "string"
                },
                {
                  "internalType": "string",
                  "name": "luogoCaseificazione",
                  "type": "string"
                },
                {
                  "internalType": "uint256",
                  "name": "mesiStagionatura",
                  "type": "uint256"
                }
              ],
              "internalType": "struct formaggio",
              "name": "forma",
              "type": "tuple"
            },
            {
              "components": [
                {
                  "internalType": "uint256",
                  "name": "squadraImbot",
                  "type": "uint256"
                },
                {
                  "internalType": "string",
                  "name": "tipoLatte",
                  "type": "string"
                },
                {
                  "internalType": "uint256",
                  "name": "lottoBotForm",
                  "type": "uint256"
                },
                {
                  "internalType": "string",
                  "name": "dataScadenza",
                  "type": "string"
                }
              ],
              "internalType": "struct bottiglia",
              "name": "bot",
              "type": "tuple"
            }
          ],
          "internalType": "struct schedaLatte[]",
          "name": "",
          "type": "tuple[]"
        }
      ],
      "stateMutability": "view",
      "type": "function",
      "constant": true
    }
  ],
  "bytecode": "0x608060405234801561001057600080fd5b50600180546001600160a01b03191633179055610f61806100326000396000f3fe608060405234801561001057600080fd5b50600436106100575760003560e01c8063062852201461005c5780631f5c52661461007a57806332434a2e1461009a578063e59480c0146100af578063f0565db4146100d2575b600080fd5b6100646100e5565b6040516100719190610ccb565b60405180910390f35b61008d610088366004610968565b6100f4565b6040516100719190610d18565b6100ad6100a836600461098b565b610173565b005b6100c26100bd366004610b5d565b610444565b6040516100719493929190610cdf565b6100c26100e0366004610968565b610522565b6001546001600160a01b031681565b6060816001600160a01b031663d03dc2b76040518163ffffffff1660e01b815260040160006040518083038186803b15801561012f57600080fd5b505afa158015610143573d6000803e3d6000fd5b505050506040513d6000823e601f3d908101601f1916820160405261016b9190810190610a12565b90505b919050565b6001546001600160a01b0316331461018a57600080fd5b6001600160a01b03821660009081526002602081905260409091200154600160a01b900460ff16156101bb57600080fd5b7fdc168395bccedd7c5fc66fa397df3660261df62fdb5341e4ced2afd10912545f816040516020016101ed9190610caf565b60405160208183030381529060405280519060200120148061025457507fc7eb79ee70d4e7c546c7d052817062ff310967478ff33095dbeb4550924450f08160405160200161023c9190610caf565b60405160208183030381529060405280519060200120145b806102a457507fb809a5e0c61dc133326d4c28a031bd1e4936e19f1ebf9dc326fb1f95029c10818160405160200161028c9190610caf565b60405160208183030381529060405280519060200120145b806102f457507ff01ae45cca5e03330e6c89fb7c910fbecb7ab4cad017ba7967b52cf4178c6bd0816040516020016102dc9190610caf565b60405160208183030381529060405280519060200120145b6102fd57600080fd5b6001600160a01b038216600081815260026020908152604090912080546001600160a01b0319169092178255825161033b926001019184019061054e565b506001600160a01b0380831660009081526002602081905260408220908101805460ff60a01b1916600160a01b179055815460018181018455928052815460039091027f290decd9548b62a8d60345a988386fc84ba6bc95484008f6362f93160ef3e563810180546001600160a01b0319169290951691909117845591810180549193927f290decd9548b62a8d60345a988386fc84ba6bc95484008f6362f93160ef3e56401916103eb90610ec2565b6103f69291906105d2565b50600291820180549190920180546001600160a01b0319166001600160a01b0390921691909117808255915460ff600160a01b918290041615150260ff60a01b199092169190911790555050565b6000818154811061045457600080fd5b6000918252602090912060039091020180546001820180546001600160a01b0390921693509061048390610ec2565b80601f01602080910402602001604051908101604052809291908181526020018280546104af90610ec2565b80156104fc5780601f106104d1576101008083540402835291602001916104fc565b820191906000526020600020905b8154815290600101906020018083116104df57829003601f168201915b505050600290930154919250506001600160a01b0381169060ff600160a01b9091041684565b600260205260009081526040902080546001820180546001600160a01b03909216929161048390610ec2565b82805461055a90610ec2565b90600052602060002090601f01602090048101928261057c57600085556105c2565b82601f1061059557805160ff19168380011785556105c2565b828001600101855582156105c2579182015b828111156105c25782518255916020019190600101906105a7565b506105ce92915061064d565b5090565b8280546105de90610ec2565b90600052602060002090601f01602090048101928261060057600085556105c2565b82601f1061061157805485556105c2565b828001600101855582156105c257600052602060002091601f016020900482015b828111156105c2578254825591600101919060010190610632565b5b808211156105ce576000815560010161064e565b805161016e81610f13565b8051801515811461016e57600080fd5b600082601f83011261068d578081fd5b81516106a061069b82610e6b565b610e42565b8181528460208386010111156106b4578283fd5b6106c5826020830160208701610e92565b949350505050565b600060a082840312156106de578081fd5b60405160a081016001600160401b03828210818311171561070157610701610efd565b8160405282935061071185610662565b83526020850151602084015260408501516040840152606085015191508082111561073b57600080fd5b6107478683870161067d565b6060840152608085015191508082111561076057600080fd5b5061076d8582860161067d565b6080830152505092915050565b60006080828403121561078b578081fd5b604051608081018181106001600160401b03821117156107ad576107ad610efd565b806040525080915082516107c081610f13565b81526107ce6020840161066d565b6020820152604083015160408201526107e96060840161066d565b60608201525092915050565b600060808284031215610806578081fd5b604051608081016001600160401b03828210818311171561082957610829610efd565b8160405282935084518352602085015191508082111561084857600080fd5b6108548683870161067d565b602084015260408501516040840152606085015191508082111561087757600080fd5b506108848582860161067d565b6060830152505092915050565b600060e082840312156108a2578081fd5b6108ac60e0610e42565b90508151815260208201516001600160401b03808211156108cc57600080fd5b6108d88583860161067d565b602084015260408401519150808211156108f157600080fd5b6108fd8583860161067d565b604084015260608401516060840152608084015191508082111561092057600080fd5b61092c8583860161067d565b608084015260a084015191508082111561094557600080fd5b506109528482850161067d565b60a08301525060c082015160c082015292915050565b600060208284031215610979578081fd5b813561098481610f13565b9392505050565b6000806040838503121561099d578081fd5b82356109a881610f13565b915060208301356001600160401b038111156109c2578182fd5b8301601f810185136109d2578182fd5b80356109e061069b82610e6b565b8181528660208385010111156109f4578384fd5b81602084016020830137908101602001929092525090939092509050565b60006020808385031215610a24578182fd5b82516001600160401b0380821115610a3a578384fd5b818501915085601f830112610a4d578384fd5b815181811115610a5f57610a5f610efd565b610a6c8485830201610e42565b81815284810190848601875b84811015610b4e578151870161012080601f19838f03011215610a99578a8bfd5b610aa360c0610e42565b8a8301518152604083015189811115610aba578c8dfd5b610ac88f8d838701016106cd565b8c830152506060610adb8f82860161077a565b6040830152610aec60e0850161066d565b9082015261010083015189811115610b02578c8dfd5b610b108f8d83870101610891565b608083015250908201519088821115610b27578b8cfd5b610b358e8c848601016107f5565b60a0820152865250509287019290870190600101610a78565b50909998505050505050505050565b600060208284031215610b6e578081fd5b5035919050565b15159052565b60008151808452610b93816020860160208601610e92565b601f01601f19169290920160200192915050565b80516001600160a01b03168252602080820151151590830152604080820151908301526060908101511515910152565b600081518352602082015160806020850152610bf66080850182610b7b565b90506040830151604085015260608301518482036060860152610c198282610b7b565b95945050505050565b600081518352602082015160e06020850152610c4160e0850182610b7b565b905060408301518482036040860152610c5a8282610b7b565b9150506060830151606085015260808301518482036080860152610c7e8282610b7b565b91505060a083015184820360a0860152610c988282610b7b565b91505060c083015160c08501528091505092915050565b60008251610cc1818460208701610e92565b9190910192915050565b6001600160a01b0391909116815260200190565b600060018060a01b03808716835260806020840152610d016080840187610b7b565b941660408301525090151560609091015292915050565b60208082528251828201819052600091906040908185019080840286018301878501865b83811015610e3457888303603f190185528151805184528781015161012089860181905281516001600160a01b031690860152808901516101408601528781015161016086015260608082015160a06101808801819052919291610da46101c0890183610b7b565b60809384015189820361011f19016101a08b015293909250610dc68385610b7b565b93508b8601519250610dda8c8a0184610ba7565b9385015193610dec60c08a0186610b75565b85015188840360e08a01529350610e038385610c22565b940151878503610100890152939250610e20915082905083610bd7565b968901969450505090860190600101610d3c565b509098975050505050505050565b6040518181016001600160401b0381118282101715610e6357610e63610efd565b604052919050565b60006001600160401b03821115610e8457610e84610efd565b50601f01601f191660200190565b60005b83811015610ead578181015183820152602001610e95565b83811115610ebc576000848401525b50505050565b600281046001821680610ed657607f821691505b60208210811415610ef757634e487b7160e01b600052602260045260246000fd5b50919050565b634e487b7160e01b600052604160045260246000fd5b6001600160a01b0381168114610f2857600080fd5b5056fea264697066735822122010bf953ffcb0567e123dc9e1acf9ac7b56a677f6be6c42142d02eb340ada7c9864736f6c63430008000033",
  "immutableReferences": {},
  "source": "// SPDX-License-Identifier: MIT\npragma solidity ^0.8.0;\n\n\nimport \"./Allevamento.sol\";\nimport \"./interfaces.sol\";\n\n\nstruct   Utente{\n        address  id;\n        string  mansione;\n        address  password;\n        bool  check_reg;\n        \n} \n\nstruct Allevatore{\n     address id_allevatore;     // chiave pubblica dell'account\n     uint lt_munti;\n     uint id_lotto_munto;\n     string luogo_mungitura;\n     string data_mungitura;\n}\n\nstruct Analista{\n     \n     address idAnalista;\n     bool flagMalattie;\n     uint phLatte;\n     bool esitoTests;\n     \n}\n\nstruct bottiglia{\n    uint squadraImbot;\n    string tipoLatte; // parzialmente scremato ecc\n    uint lottoBotForm;\n    string dataScadenza;\n}\n\n\nstruct formaggio{\n    uint lottoBotForm;\n    string dataScadenza;\n    string nomeForm;\n    uint numForma;\n    string dataCaseificazione;\n    string luogoCaseificazione;\n    uint mesiStagionatura;\n        \n}\n\nstruct schedaLatte{\n        uint progressivo;\n        Allevatore datiAllevatore;    // utilizzando le struct si alleggerisce lo stack dunque la compilazione avviene pi velocemente\n        Analista analista;\n        bool flagImbot;   // true se il latte  da imbottigliare, false se  da caseificare\n        formaggio forma;\n        bottiglia bot;\n    }\n    \n\ncontract Registrazione{\n    \n    Utente[] public lista_utenti;\n    \n    address public organizzatore;\n    mapping (address => Utente) public utenti;       // chiave valore dell'utente corrente\n    \n    \n    \n    \n    constructor(){\n        organizzatore = msg.sender;       \n    }\n    \n    \n    function register(address indirizzo_utente, string memory mans) external{                //aggiungere il modificatore\n        \n        require(\n             msg.sender == organizzatore                   // controllo che solo l'organizzatore possa registrare gli utenti\n         );\n        \n        require(\n            utenti[indirizzo_utente].check_reg == false   // controllo che l'utente non sia gi registrato\n        );\n        \n        require(\n            keccak256(abi.encodePacked(mans)) == keccak256(\"Allevamento\") || keccak256(abi.encodePacked(mans)) == keccak256(\"Caseificazione\") || \n            keccak256(abi.encodePacked(mans)) == keccak256(\"Imbottigliamento\") || keccak256(abi.encodePacked(mans)) == keccak256(\"Analisi\")          // controllo mansione dell'utente\n        );\n        \n        \n        utenti[indirizzo_utente].id = indirizzo_utente;\n        utenti[indirizzo_utente].mansione = mans;                  // aggiornamento dell'utente corrente\n        utenti[indirizzo_utente].check_reg = true;\n        lista_utenti.push(utenti[indirizzo_utente]);              // push sulla lista di tutti gli utenti\n       \n    }\n    \n    // function get_registrati() external view returns(Utente[] memory) {\n    //     return lista_utenti;\n        \n    // }\n    \n    function get_schede(address _contractAddress) external view returns(schedaLatte[] memory){\n        return Ischede(_contractAddress).get_schede();\n    }\n    \n    \n    \n    \n    \n}\n",
  "sourcePath": "C:\\Users\\Nicola Di Chiano\\Desktop\\azienda_cyber\\Milkchain\\contracts\\registrazione.sol",
  "compiler": {
    "name": "solc",
    "version": "0.8.0+commit.c7dfd78e.Emscripten.clang"
  },
  "schemaVersion": "3.4.3",
  "updatedAt": "2021-11-04T11:52:04.052Z",
  "networkType": "ethereum",
  "devdoc": {
    "kind": "dev",
    "methods": {},
    "version": 1
  },
  "userdoc": {
    "kind": "user",
    "methods": {},
    "version": 1
  }
}